{
  "contractName": "StarNotary",
  "abi": [
    {
      "constant": true,
      "inputs": [
        {
          "name": "_tokenId",
          "type": "uint256"
        }
      ],
      "name": "getApproved",
      "outputs": [
        {
          "name": "",
          "type": "address"
        }
      ],
      "payable": false,
      "stateMutability": "view",
      "type": "function"
    },
    {
      "constant": false,
      "inputs": [
        {
          "name": "_approved",
          "type": "address"
        },
        {
          "name": "_tokenId",
          "type": "uint256"
        }
      ],
      "name": "approve",
      "outputs": [],
      "payable": true,
      "stateMutability": "payable",
      "type": "function"
    },
    {
      "constant": false,
      "inputs": [
        {
          "name": "_from",
          "type": "address"
        },
        {
          "name": "_to",
          "type": "address"
        },
        {
          "name": "_tokenId",
          "type": "uint256"
        }
      ],
      "name": "transferFrom",
      "outputs": [],
      "payable": true,
      "stateMutability": "payable",
      "type": "function"
    },
    {
      "constant": false,
      "inputs": [
        {
          "name": "_from",
          "type": "address"
        },
        {
          "name": "_to",
          "type": "address"
        },
        {
          "name": "_tokenId",
          "type": "uint256"
        }
      ],
      "name": "safeTransferFrom",
      "outputs": [],
      "payable": true,
      "stateMutability": "payable",
      "type": "function"
    },
    {
      "constant": true,
      "inputs": [
        {
          "name": "_tokenId",
          "type": "uint256"
        }
      ],
      "name": "ownerOf",
      "outputs": [
        {
          "name": "",
          "type": "address"
        }
      ],
      "payable": false,
      "stateMutability": "view",
      "type": "function"
    },
    {
      "constant": true,
      "inputs": [
        {
          "name": "_owner",
          "type": "address"
        }
      ],
      "name": "balanceOf",
      "outputs": [
        {
          "name": "",
          "type": "uint256"
        }
      ],
      "payable": false,
      "stateMutability": "view",
      "type": "function"
    },
    {
      "constant": false,
      "inputs": [
        {
          "name": "_tokenId",
          "type": "uint256"
        }
      ],
      "name": "mint",
      "outputs": [],
      "payable": false,
      "stateMutability": "nonpayable",
      "type": "function"
    },
    {
      "constant": false,
      "inputs": [
        {
          "name": "_operator",
          "type": "address"
        },
        {
          "name": "_approved",
          "type": "bool"
        }
      ],
      "name": "setApprovalForAll",
      "outputs": [],
      "payable": false,
      "stateMutability": "nonpayable",
      "type": "function"
    },
    {
      "constant": true,
      "inputs": [
        {
          "name": "",
          "type": "uint256"
        }
      ],
      "name": "starsPutForSale",
      "outputs": [
        {
          "name": "",
          "type": "uint256"
        }
      ],
      "payable": false,
      "stateMutability": "view",
      "type": "function"
    },
    {
      "constant": false,
      "inputs": [
        {
          "name": "_from",
          "type": "address"
        },
        {
          "name": "_to",
          "type": "address"
        },
        {
          "name": "_tokenId",
          "type": "uint256"
        },
        {
          "name": "data",
          "type": "bytes"
        }
      ],
      "name": "safeTransferFrom",
      "outputs": [],
      "payable": true,
      "stateMutability": "payable",
      "type": "function"
    },
    {
      "constant": true,
      "inputs": [
        {
          "name": "_owner",
          "type": "address"
        },
        {
          "name": "_operator",
          "type": "address"
        }
      ],
      "name": "isApprovedForAll",
      "outputs": [
        {
          "name": "",
          "type": "bool"
        }
      ],
      "payable": false,
      "stateMutability": "view",
      "type": "function"
    },
    {
      "anonymous": false,
      "inputs": [
        {
          "indexed": true,
          "name": "_from",
          "type": "address"
        },
        {
          "indexed": true,
          "name": "_to",
          "type": "address"
        },
        {
          "indexed": true,
          "name": "_tokenId",
          "type": "uint256"
        }
      ],
      "name": "Transfer",
      "type": "event"
    },
    {
      "anonymous": false,
      "inputs": [
        {
          "indexed": true,
          "name": "_owner",
          "type": "address"
        },
        {
          "indexed": true,
          "name": "_approved",
          "type": "address"
        },
        {
          "indexed": true,
          "name": "_tokenId",
          "type": "uint256"
        }
      ],
      "name": "Approval",
      "type": "event"
    },
    {
      "anonymous": false,
      "inputs": [
        {
          "indexed": true,
          "name": "_owner",
          "type": "address"
        },
        {
          "indexed": true,
          "name": "_operator",
          "type": "address"
        },
        {
          "indexed": false,
          "name": "_approved",
          "type": "bool"
        }
      ],
      "name": "ApprovalForAll",
      "type": "event"
    },
    {
      "constant": false,
      "inputs": [
        {
          "name": "_name",
          "type": "string"
        },
        {
          "name": "_story",
          "type": "string"
        },
        {
          "name": "_dec",
          "type": "string"
        },
        {
          "name": "_mag",
          "type": "string"
        },
        {
          "name": "_cent",
          "type": "string"
        },
        {
          "name": "_tokenId",
          "type": "uint256"
        }
      ],
      "name": "createStar",
      "outputs": [
        {
          "name": "",
          "type": "string"
        }
      ],
      "payable": false,
      "stateMutability": "nonpayable",
      "type": "function"
    },
    {
      "constant": true,
      "inputs": [
        {
          "name": "_tokenId",
          "type": "uint256"
        }
      ],
      "name": "tokenIdToStarInfo",
      "outputs": [
        {
          "name": "",
          "type": "string"
        },
        {
          "name": "",
          "type": "string"
        },
        {
          "name": "",
          "type": "string"
        },
        {
          "name": "",
          "type": "string"
        },
        {
          "name": "",
          "type": "string"
        }
      ],
      "payable": false,
      "stateMutability": "view",
      "type": "function"
    },
    {
      "constant": true,
      "inputs": [
        {
          "name": "_tokenId",
          "type": "uint256"
        }
      ],
      "name": "getStarNameFromTokenId",
      "outputs": [
        {
          "name": "",
          "type": "string"
        }
      ],
      "payable": false,
      "stateMutability": "view",
      "type": "function"
    },
    {
      "constant": true,
      "inputs": [
        {
          "name": "_dec",
          "type": "string"
        },
        {
          "name": "_mag",
          "type": "string"
        },
        {
          "name": "_cent",
          "type": "string"
        }
      ],
      "name": "checkIfStarExists",
      "outputs": [
        {
          "name": "",
          "type": "bool"
        }
      ],
      "payable": false,
      "stateMutability": "view",
      "type": "function"
    },
    {
      "constant": false,
      "inputs": [
        {
          "name": "_tokenId",
          "type": "uint256"
        },
        {
          "name": "_price",
          "type": "uint256"
        }
      ],
      "name": "putStarUpForSale",
      "outputs": [],
      "payable": false,
      "stateMutability": "nonpayable",
      "type": "function"
    },
    {
      "constant": true,
      "inputs": [
        {
          "name": "_tokenId",
          "type": "uint256"
        }
      ],
      "name": "getStarPrice",
      "outputs": [
        {
          "name": "",
          "type": "uint256"
        }
      ],
      "payable": false,
      "stateMutability": "view",
      "type": "function"
    },
    {
      "constant": true,
      "inputs": [],
      "name": "starsForSale",
      "outputs": [
        {
          "name": "",
          "type": "uint256[]"
        }
      ],
      "payable": false,
      "stateMutability": "view",
      "type": "function"
    },
    {
      "constant": false,
      "inputs": [
        {
          "name": "_tokenId",
          "type": "uint256"
        }
      ],
      "name": "buyStar",
      "outputs": [],
      "payable": true,
      "stateMutability": "payable",
      "type": "function"
    }
  ],
  "bytecode": "0x608060405234801561001057600080fd5b506127fa806100206000396000f300608060405260043610610107576000357c0100000000000000000000000000000000000000000000000000000000900463ffffffff168063081812fc1461010c578063095ea7b3146101795780631967fd98146101b957806323b872dd1461040f5780632b6e25f51461046f5780632f1c34ef1461057c578063316a43611461059c57806342842e0e146105d35780635b8bafb214610633578063613883e3146106d95780636352211e1461074557806370a08231146107b2578063a0712d6814610809578063a22cb46514610836578063a699596314610885578063b250ced0146108c6578063b88d4fde14610aca578063e985e9c514610b42578063f2e791f314610bbd575b600080fd5b34801561011857600080fd5b5061013760048036038101908080359060200190929190505050610bfe565b604051808273ffffffffffffffffffffffffffffffffffffffff1673ffffffffffffffffffffffffffffffffffffffff16815260200191505060405180910390f35b6101b7600480360381019080803573ffffffffffffffffffffffffffffffffffffffff16906020019092919080359060200190929190505050610c3b565b005b3480156101c557600080fd5b506101e460048036038101908080359060200190929190505050610d58565b60405180806020018060200180602001806020018060200186810386528b818151815260200191508051906020019080838360005b83811015610234578082015181840152602081019050610219565b50505050905090810190601f1680156102615780820380516001836020036101000a031916815260200191505b5086810385528a818151815260200191508051906020019080838360005b8381101561029a57808201518184015260208101905061027f565b50505050905090810190601f1680156102c75780820380516001836020036101000a031916815260200191505b50868103845289818151815260200191508051906020019080838360005b838110156103005780820151818401526020810190506102e5565b50505050905090810190601f16801561032d5780820380516001836020036101000a031916815260200191505b50868103835288818151815260200191508051906020019080838360005b8381101561036657808201518184015260208101905061034b565b50505050905090810190601f1680156103935780820380516001836020036101000a031916815260200191505b50868103825287818151815260200191508051906020019080838360005b838110156103cc5780820151818401526020810190506103b1565b50505050905090810190601f1680156103f95780820380516001836020036101000a031916815260200191505b509a505050505050505050505060405180910390f35b61046d600480360381019080803573ffffffffffffffffffffffffffffffffffffffff169060200190929190803573ffffffffffffffffffffffffffffffffffffffff169060200190929190803590602001909291905050506111f4565b005b34801561047b57600080fd5b50610562600480360381019080803590602001908201803590602001908080601f0160208091040260200160405190810160405280939291908181526020018383808284378201915050505050509192919290803590602001908201803590602001908080601f0160208091040260200160405190810160405280939291908181526020018383808284378201915050505050509192919290803590602001908201803590602001908080601f01602080910402602001604051908101604052809392919081815260200183838082843782019150505050505091929192905050506112f5565b604051808215151515815260200191505060405180910390f35b61059a6004803603810190808035906020019092919050505061132f565b005b3480156105a857600080fd5b506105d160048036038101908080359060200190929190803590602001909291905050506115a9565b005b610631600480360381019080803573ffffffffffffffffffffffffffffffffffffffff169060200190929190803573ffffffffffffffffffffffffffffffffffffffff16906020019092919080359060200190929190505050611763565b005b34801561063f57600080fd5b5061065e60048036038101908080359060200190929190505050611864565b6040518080602001828103825283818151815260200191508051906020019080838360005b8381101561069e578082015181840152602081019050610683565b50505050905090810190601f1680156106cb5780820380516001836020036101000a031916815260200191505b509250505060405180910390f35b3480156106e557600080fd5b506106ee61191c565b6040518080602001828103825283818151815260200191508051906020019060200280838360005b83811015610731578082015181840152602081019050610716565b505050509050019250505060405180910390f35b34801561075157600080fd5b5061077060048036038101908080359060200190929190505050611a18565b604051808273ffffffffffffffffffffffffffffffffffffffff1673ffffffffffffffffffffffffffffffffffffffff16815260200191505060405180910390f35b3480156107be57600080fd5b506107f3600480360381019080803573ffffffffffffffffffffffffffffffffffffffff169060200190929190505050611a54565b6040518082815260200191505060405180910390f35b34801561081557600080fd5b5061083460048036038101908080359060200190929190505050611b67565b005b34801561084257600080fd5b50610883600480360381019080803573ffffffffffffffffffffffffffffffffffffffff169060200190929190803515159060200190929190505050611d60565b005b34801561089157600080fd5b506108b060048036038101908080359060200190929190505050611e61565b6040518082815260200191505060405180910390f35b3480156108d257600080fd5b50610a4f600480360381019080803590602001908201803590602001908080601f0160208091040260200160405190810160405280939291908181526020018383808284378201915050505050509192919290803590602001908201803590602001908080601f0160208091040260200160405190810160405280939291908181526020018383808284378201915050505050509192919290803590602001908201803590602001908080601f0160208091040260200160405190810160405280939291908181526020018383808284378201915050505050509192919290803590602001908201803590602001908080601f0160208091040260200160405190810160405280939291908181526020018383808284378201915050505050509192919290803590602001908201803590602001908080601f016020809104026020016040519081016040528093929190818152602001838380828437820191505050505050919291929080359060200190929190505050611e79565b6040518080602001828103825283818151815260200191508051906020019080838360005b83811015610a8f578082015181840152602081019050610a74565b50505050905090810190601f168015610abc5780820380516001836020036101000a031916815260200191505b509250505060405180910390f35b610b40600480360381019080803573ffffffffffffffffffffffffffffffffffffffff169060200190929190803573ffffffffffffffffffffffffffffffffffffffff16906020019092919080359060200190929190803590602001908201803590602001919091929391929390505050612052565b005b348015610b4e57600080fd5b50610ba3600480360381019080803573ffffffffffffffffffffffffffffffffffffffff169060200190929190803573ffffffffffffffffffffffffffffffffffffffff169060200190929190505050612059565b604051808215151515815260200191505060405180910390f35b348015610bc957600080fd5b50610be8600480360381019080803590602001909291905050506120ed565b6040518082815260200191505060405180910390f35b60006002600083815260200190815260200160002060009054906101000a900473ffffffffffffffffffffffffffffffffffffffff169050919050565b3373ffffffffffffffffffffffffffffffffffffffff1660008083815260200190815260200160002060009054906101000a900473ffffffffffffffffffffffffffffffffffffffff1673ffffffffffffffffffffffffffffffffffffffff16141515610ca757600080fd5b816002600083815260200190815260200160002060006101000a81548173ffffffffffffffffffffffffffffffffffffffff021916908373ffffffffffffffffffffffffffffffffffffffff160217905550808273ffffffffffffffffffffffffffffffffffffffff163373ffffffffffffffffffffffffffffffffffffffff167f8c5be1e5ebec7d5bd14f71427d1e84f3dd0314c0f7b2291e5b200ac8c7c3b92560405160405180910390a45050565b6060806060806060610d686126bd565b6005600088815260200190815260200160002060606040519081016040529081600082018054600181600116156101000203166002900480601f016020809104026020016040519081016040528092919081815260200182805460018160011615610100020316600290048015610e205780601f10610df557610100808354040283529160200191610e20565b820191906000526020600020905b815481529060010190602001808311610e0357829003601f168201915b50505050508152602001600182018054600181600116156101000203166002900480601f016020809104026020016040519081016040528092919081815260200182805460018160011615610100020316600290048015610ec25780601f10610e9757610100808354040283529160200191610ec2565b820191906000526020600020905b815481529060010190602001808311610ea557829003601f168201915b505050505081526020016002820160606040519081016040529081600082018054600181600116156101000203166002900480601f016020809104026020016040519081016040528092919081815260200182805460018160011615610100020316600290048015610f755780601f10610f4a57610100808354040283529160200191610f75565b820191906000526020600020905b815481529060010190602001808311610f5857829003601f168201915b50505050508152602001600182018054600181600116156101000203166002900480601f0160208091040260200160405190810160405280929190818152602001828054600181600116156101000203166002900480156110175780601f10610fec57610100808354040283529160200191611017565b820191906000526020600020905b815481529060010190602001808311610ffa57829003601f168201915b50505050508152602001600282018054600181600116156101000203166002900480601f0160208091040260200160405190810160405280929190818152602001828054600181600116156101000203166002900480156110b95780601f1061108e576101008083540402835291602001916110b9565b820191906000526020600020905b81548152906001019060200180831161109c57829003601f168201915b5050505050815250508152505090508060000151816020015161112a6040805190810160405280600481526020017f6465635f00000000000000000000000000000000000000000000000000000000815250846040015160000151602060405190810160405280600081525061210a565b6111826040805190810160405280600481526020017f6d61675f00000000000000000000000000000000000000000000000000000000815250856040015160200151602060405190810160405280600081525061210a565b6111da6040805190810160405280600581526020017f63656e745f000000000000000000000000000000000000000000000000000000815250866040015160400151602060405190810160405280600081525061210a565b849450839350955095509550955095505091939590929450565b338160008082815260200190815260200160002060009054906101000a900473ffffffffffffffffffffffffffffffffffffffff1673ffffffffffffffffffffffffffffffffffffffff168273ffffffffffffffffffffffffffffffffffffffff16148061129557508173ffffffffffffffffffffffffffffffffffffffff1661127d82610bfe565b73ffffffffffffffffffffffffffffffffffffffff16145b806112d857506112d760008083815260200190815260200160002060009054906101000a900473ffffffffffffffffffffffffffffffffffffffff1683612059565b5b15156112e357600080fd5b6112ee3385856123a1565b5050505050565b60008061130385858561256a565b905060006004600083600019166000191681526020019081526020016000205414159150509392505050565b600080600060066000858152602001908152602001600020541115156113bd576040517f08c379a00000000000000000000000000000000000000000000000000000000081526004018080602001828103825260148152602001807f53746172206973206e6f7420666f722073616c6500000000000000000000000081525060200191505060405180910390fd5b600660008481526020019081526020016000205491503073ffffffffffffffffffffffffffffffffffffffff16636352211e846040518263ffffffff167c010000000000000000000000000000000000000000000000000000000002815260040180828152602001915050602060405180830381600087803b15801561144257600080fd5b505af1158015611456573d6000803e3d6000fd5b505050506040513d602081101561146c57600080fd5b810190808051906020019092919050505090508134101515156114f7576040517f08c379a000000000000000000000000000000000000000000000000000000000815260040180806020018281038252601e8152602001807f5061796d656e74206e6f7420656e6f75676820746f206275792073746172000081525060200191505060405180910390fd5b6115008361264e565b61150b8133856123a1565b8134111561155d573373ffffffffffffffffffffffffffffffffffffffff166108fc8334039081150290604051600060405180830381858888f1935050505015801561155b573d6000803e3d6000fd5b505b8073ffffffffffffffffffffffffffffffffffffffff166108fc839081150290604051600060405180830381858888f193505050501580156115a3573d6000803e3d6000fd5b50505050565b3073ffffffffffffffffffffffffffffffffffffffff16636352211e836040518263ffffffff167c010000000000000000000000000000000000000000000000000000000002815260040180828152602001915050602060405180830381600087803b15801561161857600080fd5b505af115801561162c573d6000803e3d6000fd5b505050506040513d602081101561164257600080fd5b810190808051906020019092919050505073ffffffffffffffffffffffffffffffffffffffff163373ffffffffffffffffffffffffffffffffffffffff1614151561171b576040517f08c379a00000000000000000000000000000000000000000000000000000000081526004018080602001828103825260228152602001807f55736572206973206e6f7420746865206f776e6572206f66207468652073746181526020017f722e00000000000000000000000000000000000000000000000000000000000081525060400191505060405180910390fd5b80600660008481526020019081526020016000208190555060078290806001815401808255809150509060018203906000526020600020016000909192909190915055505050565b338160008082815260200190815260200160002060009054906101000a900473ffffffffffffffffffffffffffffffffffffffff1673ffffffffffffffffffffffffffffffffffffffff168273ffffffffffffffffffffffffffffffffffffffff16148061180457508173ffffffffffffffffffffffffffffffffffffffff166117ec82610bfe565b73ffffffffffffffffffffffffffffffffffffffff16145b80611847575061184660008083815260200190815260200160002060009054906101000a900473ffffffffffffffffffffffffffffffffffffffff1683612059565b5b151561185257600080fd5b61185d3385856123a1565b5050505050565b6060600560008381526020019081526020016000206000018054600181600116156101000203166002900480601f0160208091040260200160405190810160405280929190818152602001828054600181600116156101000203166002900480156119105780601f106118e557610100808354040283529160200191611910565b820191906000526020600020905b8154815290600101906020018083116118f357829003601f168201915b50505050509050919050565b606060008060006007805490509250600090505b828110156119c05760006006600060078481548110151561194d57fe5b90600052602060002001548152602001908152602001600020541415156119b3578160078281548110151561197e57fe5b906000526020600020015490806001815401808255809150509060018203906000526020600020016000909192909190915055505b8080600101915050611930565b81805480602002602001604051908101604052809291908181526020018280548015611a0b57602002820191906000526020600020905b8154815260200190600101908083116119f7575b5050505050935050505090565b600080600083815260200190815260200160002060009054906101000a900473ffffffffffffffffffffffffffffffffffffffff169050919050565b60008073ffffffffffffffffffffffffffffffffffffffff168273ffffffffffffffffffffffffffffffffffffffff1614151515611b20576040517f08c379a00000000000000000000000000000000000000000000000000000000081526004018080602001828103825260228152602001807f63616e6e6f742061736b206f662062616c616e6365206f66206164647265737381526020017f203000000000000000000000000000000000000000000000000000000000000081525060400191505060405180910390fd5b600160008373ffffffffffffffffffffffffffffffffffffffff1673ffffffffffffffffffffffffffffffffffffffff168152602001908152602001600020549050919050565b600073ffffffffffffffffffffffffffffffffffffffff1660008083815260200190815260200160002060009054906101000a900473ffffffffffffffffffffffffffffffffffffffff1673ffffffffffffffffffffffffffffffffffffffff16141515611c63576040517f08c379a000000000000000000000000000000000000000000000000000000000815260040180806020018281038252602a8152602001807f7468697320746f6b656e2062656c6f6e677320746f20736f6d656f6e6520656c81526020017f736520616c72656164790000000000000000000000000000000000000000000081525060400191505060405180910390fd5b3360008083815260200190815260200160002060006101000a81548173ffffffffffffffffffffffffffffffffffffffff021916908373ffffffffffffffffffffffffffffffffffffffff16021790555060018060003373ffffffffffffffffffffffffffffffffffffffff1673ffffffffffffffffffffffffffffffffffffffff16815260200190815260200160002060008282540192505081905550803373ffffffffffffffffffffffffffffffffffffffff16600073ffffffffffffffffffffffffffffffffffffffff167fddf252ad1be2c89b69c2b068fc378daa952ba7f163c4a11628f55a4df523b3ef60405160405180910390a450565b80600360003373ffffffffffffffffffffffffffffffffffffffff1673ffffffffffffffffffffffffffffffffffffffff16815260200190815260200160002060008473ffffffffffffffffffffffffffffffffffffffff1673ffffffffffffffffffffffffffffffffffffffff16815260200190815260200160002060006101000a81548160ff0219169083151502179055508173ffffffffffffffffffffffffffffffffffffffff163373ffffffffffffffffffffffffffffffffffffffff167f17307eab39ab6107e8899845ad3d59bd9653f200f220920489ca2b5937696c3183604051808215151515815260200191505060405180910390a35050565b60066020528060005260406000206000915090505481565b60606000611e856126e5565b611e8d6126bd565b611e9888888861256a565b9250600060046000856000191660001916815260200190815260200160002054141515611f2d576040517f08c379a00000000000000000000000000000000000000000000000000000000081526004018080602001828103825260138152602001807f5374617220616c7265616479206578697374730000000000000000000000000081525060200191505060405180910390fd5b6060604051908101604052808981526020018881526020018781525091506060604051908101604052808b81526020018a815260200183815250905080600560008781526020019081526020016000206000820151816000019080519060200190611f99929190612707565b506020820151816001019080519060200190611fb6929190612707565b506040820151816002016000820151816000019080519060200190611fdc929190612707565b506020820151816001019080519060200190611ff9929190612707565b506040820151816002019080519060200190612016929190612707565b50505090505061202585611b67565b84600460008560001916600019168152602001908152602001600020819055505050509695505050505050565b5050505050565b6000600360008473ffffffffffffffffffffffffffffffffffffffff1673ffffffffffffffffffffffffffffffffffffffff16815260200190815260200160002060008373ffffffffffffffffffffffffffffffffffffffff1673ffffffffffffffffffffffffffffffffffffffff16815260200190815260200160002060009054906101000a900460ff16905092915050565b600060066000838152602001908152602001600020549050919050565b6060806060806060806000806000808c98508b97508a9650865188518a5101016040519080825280601f01601f19166020018201604052801561215c5781602001602082028038833980820191505090505b50955085945060009350600092505b885183101561221e57888381518110151561218257fe5b9060200101517f010000000000000000000000000000000000000000000000000000000000000090047f01000000000000000000000000000000000000000000000000000000000000000285858060010196508151811015156121e157fe5b9060200101907effffffffffffffffffffffffffffffffffffffffffffffffffffffffffffff1916908160001a905350828060010193505061216b565b600091505b87518210156122d657878281518110151561223a57fe5b9060200101517f010000000000000000000000000000000000000000000000000000000000000090047f010000000000000000000000000000000000000000000000000000000000000002858580600101965081518110151561229957fe5b9060200101907effffffffffffffffffffffffffffffffffffffffffffffffffffffffffffff1916908160001a9053508180600101925050612223565b600090505b865181101561238e5786818151811015156122f257fe5b9060200101517f010000000000000000000000000000000000000000000000000000000000000090047f010000000000000000000000000000000000000000000000000000000000000002858580600101965081518110151561235157fe5b9060200101907effffffffffffffffffffffffffffffffffffffffffffffffffffffffffffff1916908160001a90535080806001019150506122db565b8499505050505050505050509392505050565b600073ffffffffffffffffffffffffffffffffffffffff168273ffffffffffffffffffffffffffffffffffffffff161415151561246c576040517f08c379a00000000000000000000000000000000000000000000000000000000081526004018080602001828103825260218152602001807f7472616e7366657220746f20616464726573732030206e6f7420616c6c6f776581526020017f640000000000000000000000000000000000000000000000000000000000000081525060400191505060405180910390fd5b8160008083815260200190815260200160002060006101000a81548173ffffffffffffffffffffffffffffffffffffffff021916908373ffffffffffffffffffffffffffffffffffffffff16021790555060018060008573ffffffffffffffffffffffffffffffffffffffff1673ffffffffffffffffffffffffffffffffffffffff16815260200190815260200160002060008282540392505081905550808273ffffffffffffffffffffffffffffffffffffffff168473ffffffffffffffffffffffffffffffffffffffff167fddf252ad1be2c89b69c2b068fc378daa952ba7f163c4a11628f55a4df523b3ef60405160405180910390a4505050565b600061257784848461210a565b6040516020018082805190602001908083835b6020831015156125af578051825260208201915060208101905060208303925061258a565b6001836020036101000a0380198251168184511680821785525050505050509050019150506040516020818303038152906040526040518082805190602001908083835b60208310151561261857805182526020820191506020810190506020830392506125f3565b6001836020036101000a038019825116818451168082178552505050505050905001915050604051809103902090509392505050565b60006002600083815260200190815260200160002060006101000a81548173ffffffffffffffffffffffffffffffffffffffff021916908373ffffffffffffffffffffffffffffffffffffffff1602179055506000600660008381526020019081526020016000208190555050565b60a06040519081016040528060608152602001606081526020016126df612787565b81525090565b6060604051908101604052806060815260200160608152602001606081525090565b828054600181600116156101000203166002900490600052602060002090601f016020900481019282601f1061274857805160ff1916838001178555612776565b82800160010185558215612776579182015b8281111561277557825182559160200191906001019061275a565b5b50905061278391906127a9565b5090565b6060604051908101604052806060815260200160608152602001606081525090565b6127cb91905b808211156127c75760008160009055506001016127af565b5090565b905600a165627a7a723058203cb7047dc4bebd9cd5f383ae4e9c8d8610f846f91b831311ea211b199b503f340029",
  "source": "pragma solidity ^0.4.23;\n\nimport './ERC721Token.sol';\n\ncontract StarNotary is ERC721Token {\n\n    struct Coordinates {\n        string dec;\n        string mag;\n        string cent;\n    }\n\n    struct Star {\n        string name;\n        string story;\n        Coordinates coordinates;\n    }\n\n    mapping(bytes32 => uint256) hashToTokenId;\n    mapping(uint256 => Star) public tokenIdToStarInfo;\n    mapping(uint256 => uint256) public starsPutForSale;\n    uint256[] starsPutForSaleIndex;\n\n    function createStar(string _name, string _story, string _dec, string _mag, string _cent, uint256 _tokenId) public returns(string) {\n\n        bytes32 hashCoord = hashCoordinates(_dec, _mag, _cent);\n\n        require(hashToTokenId[hashCoord] == 0, 'Star already exists');\n\n        Coordinates memory newCoordinates = Coordinates(_dec, _mag, _cent);\n        Star memory newStar = Star(_name, _story, newCoordinates);\n\n        tokenIdToStarInfo[_tokenId] = newStar;\n\n        ERC721Token.mint(_tokenId);\n\n        hashToTokenId[hashCoord] = _tokenId;\n    }\n\n    function tokenIdToStarInfo(uint256 _tokenId) public view returns (string, string, string, string, string) {\n        Star memory star = tokenIdToStarInfo[_tokenId];\n        return (star.name, star.story, concatStr(\"dec_\", star.coordinates.dec, \"\"), concatStr(\"mag_\", star.coordinates.mag, \"\"), concatStr(\"cent_\", star.coordinates.cent, \"\"));\n    }\n\n    function getStarNameFromTokenId(uint256 _tokenId) public view returns (string) {\n        return tokenIdToStarInfo[_tokenId].name;\n    }\n\n    function hashCoordinates(string _dec, string _mag, string _cent) internal returns (bytes32) {\n        return keccak256(abi.encodePacked(concatStr(_dec, _mag, _cent)));\n    }\n\n    function concatStr(string _str1, string _str2, string _str3) internal returns (string) {\n        bytes memory _bstr1 = bytes(_str1);\n        bytes memory _bstr2 = bytes(_str2);\n        bytes memory _bstr3 = bytes(_str3);\n        string memory res = new string(_bstr1.length + _bstr2.length + _bstr3.length);\n        bytes memory bres = bytes(res);\n\n        uint i = 0;\n        for(uint a = 0; a < _bstr1.length; a++) bres[i++] = _bstr1[a];\n        for(uint b = 0; b < _bstr2.length; b++) bres[i++] = _bstr2[b];\n        for(uint c = 0; c < _bstr3.length; c++) bres[i++] = _bstr3[c];\n\n        return string(bres);\n    }\n\n    function checkIfStarExists(string _dec, string _mag, string _cent) public view returns (bool) {\n        bytes32 hashCoord = hashCoordinates(_dec, _mag, _cent);\n        return hashToTokenId[hashCoord] != 0;\n    }\n\n    function putStarUpForSale(uint256 _tokenId, uint256 _price) public {\n        require(msg.sender == this.ownerOf(_tokenId), \"User is not the owner of the star.\");\n\n        starsPutForSale[_tokenId] = _price;\n\n        starsPutForSaleIndex.push(_tokenId);\n    }\n\n    function getStarPrice(uint256 _tokenId) public view returns (uint256) {\n        return starsPutForSale[_tokenId];\n    }\n\n    function starsForSale() public view returns (uint256[]) {\n        uint len = starsPutForSaleIndex.length;\n\n        uint256[] stars;\n\n        for(uint i = 0; i < len; i++) {\n            if(starsPutForSale[starsPutForSaleIndex[i]] != 0) {\n                stars.push(starsPutForSaleIndex[i]);\n            }\n        }\n\n        return stars;\n    }\n\n    function buyStar(uint256 _tokenId) public payable {\n        require(starsPutForSale[_tokenId] > 0, \"Star is not for sale\");\n\n        uint256 starCost = starsPutForSale[_tokenId];\n        address starOwner = this.ownerOf(_tokenId);\n\n        require(msg.value >= starCost, \"Payment not enough to buy star\");\n\n        clearPreviousStarState(_tokenId);\n\n        transferFromHelper(starOwner, msg.sender, _tokenId);\n\n        if(msg.value > starCost) {\n            msg.sender.transfer(msg.value - starCost);\n        }\n\n        starOwner.transfer(starCost);\n    }\n\n    function clearPreviousStarState(uint256 _tokenId) private {\n        tokenToApproved[_tokenId] = address(0);\n        starsPutForSale[_tokenId] = 0;\n    }\n}",
  "sourcePath": "/Users/nmiguel/Desktop/udacity-smart-2/smart_contracts/contracts/StarNotary.sol",
  "compiler": {
    "name": "solc",
    "version": "0.4.24+commit.e67f0147.Emscripten.clang"
  },
  "schemaVersion": "2.0.1",
  "updatedAt": "2018-09-20T12:42:48.833Z"
}